{
  "address": "0xF2ACD433D16644f28FC45FCb2c8baAa5a433AAAB",
  "abi": [
    {
      "inputs": [
        {
          "internalType": "address",
          "name": "token",
          "type": "address"
        },
        {
          "internalType": "address[]",
          "name": "recipients",
          "type": "address[]"
        },
        {
          "internalType": "uint256[]",
          "name": "amounts",
          "type": "uint256[]"
        }
      ],
      "name": "send",
      "outputs": [],
      "stateMutability": "nonpayable",
      "type": "function"
    },
    {
      "inputs": [
        {
          "internalType": "address",
          "name": "token",
          "type": "address"
        },
        {
          "internalType": "address[]",
          "name": "recipients",
          "type": "address[]"
        },
        {
          "internalType": "uint256",
          "name": "amount",
          "type": "uint256"
        }
      ],
      "name": "sendWithSameAmount",
      "outputs": [],
      "stateMutability": "nonpayable",
      "type": "function"
    }
  ],
  "transactionHash": "0xa3f036fe0ebd29d0944f8969189680182a0ea41920db91bd3a8738f44e628212",
  "args": [],
  "solcInputHash": "dafe303d7eb6c00f9b1735818a7ef4af",
  "bytecode": "0x608060405234801561001057600080fd5b50610681806100206000396000f3fe608060405234801561001057600080fd5b50600436106100365760003560e01c8063236ee5c31461003b578063f8129cd214610050575b600080fd5b61004e610049366004610531565b610063565b005b61004e61005e3660046104b3565b6100d2565b60005b828110156100cb576100b93385858481811061009257634e487b7160e01b600052603260045260246000fd5b90506020020160208101906100a79190610499565b6001600160a01b038816919085610171565b806100c381610624565b915050610066565b5050505050565b60005b83811015610169576101573386868481811061010157634e487b7160e01b600052603260045260246000fd5b90506020020160208101906101169190610499565b85858581811061013657634e487b7160e01b600052603260045260246000fd5b90506020020135896001600160a01b0316610171909392919063ffffffff16565b8061016181610624565b9150506100d5565b505050505050565b604080516001600160a01b0385811660248301528416604482015260648082018490528251808303909101815260849091019091526020810180516001600160e01b03166323b872dd60e01b1790526101cb9085906101d1565b50505050565b6000610226826040518060400160405280602081526020017f5361666545524332303a206c6f772d6c6576656c2063616c6c206661696c6564815250856001600160a01b03166102ad9092919063ffffffff16565b8051909150156102a857808060200190518101906102449190610589565b6102a85760405162461bcd60e51b815260206004820152602a60248201527f5361666545524332303a204552433230206f7065726174696f6e20646964206e6044820152691bdd081cdd58d8d9595960b21b60648201526084015b60405180910390fd5b505050565b60606102bc84846000856102c6565b90505b9392505050565b6060824710156103275760405162461bcd60e51b815260206004820152602660248201527f416464726573733a20696e73756666696369656e742062616c616e636520666f6044820152651c8818d85b1b60d21b606482015260840161029f565b610330856103f5565b61037c5760405162461bcd60e51b815260206004820152601d60248201527f416464726573733a2063616c6c20746f206e6f6e2d636f6e7472616374000000604482015260640161029f565b600080866001600160a01b0316858760405161039891906105a9565b60006040518083038185875af1925050503d80600081146103d5576040519150601f19603f3d011682016040523d82523d6000602084013e6103da565b606091505b50915091506103ea8282866103ff565b979650505050505050565b803b15155b919050565b6060831561040e5750816102bf565b82511561041e5782518084602001fd5b8160405162461bcd60e51b815260040161029f91906105c5565b80356001600160a01b03811681146103fa57600080fd5b60008083601f840112610460578182fd5b50813567ffffffffffffffff811115610477578182fd5b6020830191508360208260051b850101111561049257600080fd5b9250929050565b6000602082840312156104aa578081fd5b6102bf82610438565b6000806000806000606086880312156104ca578081fd5b6104d386610438565b9450602086013567ffffffffffffffff808211156104ef578283fd5b6104fb89838a0161044f565b90965094506040880135915080821115610513578283fd5b506105208882890161044f565b969995985093965092949392505050565b60008060008060608587031215610546578384fd5b61054f85610438565b9350602085013567ffffffffffffffff81111561056a578384fd5b6105768782880161044f565b9598909750949560400135949350505050565b60006020828403121561059a578081fd5b815180151581146102bf578182fd5b600082516105bb8184602087016105f8565b9190910192915050565b60006020825282518060208401526105e48160408501602087016105f8565b601f01601f19169190910160400192915050565b60005b838110156106135781810151838201526020016105fb565b838111156101cb5750506000910152565b600060001982141561064457634e487b7160e01b81526011600452602481fd5b506001019056fea26469706673582212205446fd79c548a22a5a01098c5f386597002a95fe9a21cd1ad818d851593d5fe564736f6c63430008030033",
  "devdoc": {
    "kind": "dev",
    "methods": {},
    "version": 1
  },
  "userdoc": {
    "kind": "user",
    "methods": {},
    "version": 1
  },
  "storageLayout": {
    "storage": [],
    "types": null
  }
}