{
  "address": "0xff5D282e42E4F133d28899fF10DF50ea1904a545",
  "abi": [
    {
      "inputs": [
        {
          "internalType": "address",
          "name": "token",
          "type": "address"
        },
        {
          "internalType": "address[]",
          "name": "recipients",
          "type": "address[]"
        },
        {
          "internalType": "uint256[]",
          "name": "ids",
          "type": "uint256[]"
        },
        {
          "internalType": "uint256[]",
          "name": "amounts",
          "type": "uint256[]"
        }
      ],
      "name": "send",
      "outputs": [],
      "stateMutability": "nonpayable",
      "type": "function"
    },
    {
      "inputs": [
        {
          "internalType": "address",
          "name": "token",
          "type": "address"
        },
        {
          "internalType": "address[]",
          "name": "recipients",
          "type": "address[]"
        },
        {
          "internalType": "uint256",
          "name": "id",
          "type": "uint256"
        },
        {
          "internalType": "uint256[]",
          "name": "amounts",
          "type": "uint256[]"
        }
      ],
      "name": "sendWithSameId",
      "outputs": [],
      "stateMutability": "nonpayable",
      "type": "function"
    },
    {
      "inputs": [
        {
          "internalType": "address",
          "name": "token",
          "type": "address"
        },
        {
          "internalType": "address[]",
          "name": "recipients",
          "type": "address[]"
        },
        {
          "internalType": "uint256",
          "name": "id",
          "type": "uint256"
        },
        {
          "internalType": "uint256",
          "name": "amount",
          "type": "uint256"
        }
      ],
      "name": "sendWithSameIdAndAmount",
      "outputs": [],
      "stateMutability": "nonpayable",
      "type": "function"
    }
  ],
  "transactionHash": "0x0b9173111fa973ce300a201f93a5c14af9aba88d1fe1bbacea71814870a154d3",
  "args": [],
  "solcInputHash": "53f70d299df285d9ea77fee34ae162fa",
  "bytecode": "0x608060405234801561001057600080fd5b506105e8806100206000396000f3fe608060405234801561001057600080fd5b50600436106100415760003560e01c806309ded849146100465780631ea593671461005b5780632a92e2501461006e575b600080fd5b61005961005436600461045e565b610081565b005b6100596100693660046104e5565b610166565b61005961007c3660046103b7565b610224565b60005b8481101561015d57866001600160a01b031663f242432a338888858181106100bc57634e487b7160e01b600052603260045260246000fd5b90506020020160208101906100d19190610396565b878787878181106100f257634e487b7160e01b600052603260045260246000fd5b905060200201356040518563ffffffff1660e01b81526004016101189493929190610548565b600060405180830381600087803b15801561013257600080fd5b505af1158015610146573d6000803e3d6000fd5b5050505080806101559061058b565b915050610084565b50505050505050565b60005b8381101561021c57856001600160a01b031663f242432a338787858181106101a157634e487b7160e01b600052603260045260246000fd5b90506020020160208101906101b69190610396565b86866040518563ffffffff1660e01b81526004016101d79493929190610548565b600060405180830381600087803b1580156101f157600080fd5b505af1158015610205573d6000803e3d6000fd5b5050505080806102149061058b565b915050610169565b505050505050565b60005b8581101561032657876001600160a01b031663f242432a3389898581811061025f57634e487b7160e01b600052603260045260246000fd5b90506020020160208101906102749190610396565b88888681811061029457634e487b7160e01b600052603260045260246000fd5b905060200201358787878181106102bb57634e487b7160e01b600052603260045260246000fd5b905060200201356040518563ffffffff1660e01b81526004016102e19493929190610548565b600060405180830381600087803b1580156102fb57600080fd5b505af115801561030f573d6000803e3d6000fd5b50505050808061031e9061058b565b915050610227565b5050505050505050565b80356001600160a01b038116811461034757600080fd5b919050565b60008083601f84011261035d578182fd5b50813567ffffffffffffffff811115610374578182fd5b6020830191508360208260051b850101111561038f57600080fd5b9250929050565b6000602082840312156103a7578081fd5b6103b082610330565b9392505050565b60008060008060008060006080888a0312156103d1578283fd5b6103da88610330565b9650602088013567ffffffffffffffff808211156103f6578485fd5b6104028b838c0161034c565b909850965060408a013591508082111561041a578485fd5b6104268b838c0161034c565b909650945060608a013591508082111561043e578384fd5b5061044b8a828b0161034c565b989b979a50959850939692959293505050565b60008060008060008060808789031215610476578182fd5b61047f87610330565b9550602087013567ffffffffffffffff8082111561049b578384fd5b6104a78a838b0161034c565b90975095506040890135945060608901359150808211156104c6578384fd5b506104d389828a0161034c565b979a9699509497509295939492505050565b6000806000806000608086880312156104fc578081fd5b61050586610330565b9450602086013567ffffffffffffffff811115610520578182fd5b61052c8882890161034c565b9699909850959660408101359660609091013595509350505050565b6001600160a01b0394851681529290931660208301526040820152606081019190915260a06080820181905260029082015261060f60f31b60c082015260e00190565b60006000198214156105ab57634e487b7160e01b81526011600452602481fd5b506001019056fea26469706673582212203fd78077cbbb41d67f94d837f91904823bd4e0877c008007acdcaf04d4456c9b64736f6c63430008030033",
  "devdoc": {
    "kind": "dev",
    "methods": {},
    "version": 1
  },
  "userdoc": {
    "kind": "user",
    "methods": {},
    "version": 1
  },
  "storageLayout": {
    "storage": [],
    "types": null
  }
}