{
  "address": "0x165526b5a3bE75EC8037Ee5e5Be6B57a6Dd9321B",
  "abi": [
    {
      "inputs": [
        {
          "internalType": "address",
          "name": "token",
          "type": "address"
        },
        {
          "internalType": "address[]",
          "name": "recipients",
          "type": "address[]"
        },
        {
          "internalType": "uint256[]",
          "name": "ids",
          "type": "uint256[]"
        }
      ],
      "name": "send",
      "outputs": [],
      "stateMutability": "nonpayable",
      "type": "function"
    }
  ],
  "transactionHash": "0x89492abcb5f4e3c7b81d4f699d085059674b8ba2ff415896d758e26bc8a6c42c",
  "args": [],
  "solcInputHash": "23747d039ef93b7edc551a41dd2c5f2f",
  "bytecode": "0x608060405234801561001057600080fd5b506102a1806100206000396000f3fe608060405234801561001057600080fd5b506004361061002b5760003560e01c8063f8129cd214610030575b600080fd5b61004361003e3660046101c6565b610045565b005b60005b8381101561013757856001600160a01b03166342842e0e3387878581811061008057634e487b7160e01b600052603260045260246000fd5b905060200201602081019061009591906101a5565b8686868181106100b557634e487b7160e01b600052603260045260246000fd5b6040516001600160e01b031960e088901b1681526001600160a01b03958616600482015294909316602485015250602090910201356044820152606401600060405180830381600087803b15801561010c57600080fd5b505af1158015610120573d6000803e3d6000fd5b50505050808061012f90610244565b915050610048565b505050505050565b80356001600160a01b038116811461015657600080fd5b919050565b60008083601f84011261016c578182fd5b50813567ffffffffffffffff811115610183578182fd5b6020830191508360208260051b850101111561019e57600080fd5b9250929050565b6000602082840312156101b6578081fd5b6101bf8261013f565b9392505050565b6000806000806000606086880312156101dd578081fd5b6101e68661013f565b9450602086013567ffffffffffffffff80821115610202578283fd5b61020e89838a0161015b565b90965094506040880135915080821115610226578283fd5b506102338882890161015b565b969995985093965092949392505050565b600060001982141561026457634e487b7160e01b81526011600452602481fd5b506001019056fea2646970667358221220147926941ffb4354b98088b1a7d48ea0fca41a25786b2c48e69dfc21279e677f64736f6c63430008030033",
  "devdoc": {
    "kind": "dev",
    "methods": {},
    "version": 1
  },
  "userdoc": {
    "kind": "user",
    "methods": {},
    "version": 1
  },
  "storageLayout": {
    "storage": [],
    "types": null
  }
}